:100000000C9493000C9488550C9431500C94CE3D74
:100010000C9411440C9488550C9488550C94885574
:100020000C9488550C9488550C9488550C948855DC
:100030000C9488550C9488550C9488550C94114751
:100040000C9488550C9488550C9488550C948855BC
:100050000C9488550C9488550C9422500C943D4473
:100060000C9488550C9488550C9488550C9488559C
:100070000C9488550C94DE310C9488550C943E45B4
:100080000C9467450C94074D0C9488550C94885536
:100090002800308380308330D400AB4630D4311513
:1000A000803115318200AB973182319480319431A7
:1000B000A400AC0431A431C28031C231D000AC14F0
:1000C00031D031DD8031DD327D00AC22327D32CD68
:1000D0008032CD32F100ACC232F132F58032F532ED
:1000E000F900ACE632F93301803301330500ACEAA4
:1000F0003305334D80334D335100ACEE3351336C07
:1001000080336C336D0026DB336D337B80337B3380
:100110007C005BFD337C337F80337F33800091999B
:100120003380338C800011241FBECFEFCDBFDFE3BF
:10013000DEBFE0E9F0E041E017C0B591A59135914F
:100140002591059107FD0CC095918591EF01F92F3F
:10015000E82F05900D92A217B307D9F7FE0104C04E
:100160001D92A217B307E1F7E532F40731F70E94B9
:0A017000F0540C94BB00F894FFCF8C
:10017A00EF92FF920F931F93CF93DF9300D0CDB7E7
:10018A00DEB78C0110926F3380916D33823020F08C
:10019A00833009F497C084C28091723380FF80C291
:1001AA00C8010E948653C80108960E94865341E0FE
:1001BA0050E068EF70E3C8010E949D380F2EF8EFF7
:1001CA00EF2EF0E3FF2EF02D69EF70E3F701838D38
:1001DA00948D0E940B4B482F50E069EF70E3C801E1
:1001EA000E949D384AE050E06DEF70E3C8010E941A
:1001FA009D3842E050E067E071E3C8010E949D38F3
:10020A00F70161897289FB0101900020E9F73197B2
:10021A00AF01461B570BC8010E949D38F701878919
:10022A00908D892B31F480910B3190910C31892B6F
:10023A0051F142E050E06BE071E3C8010E949D3841
:10024A000F2EF8EFEF2EF0E3FF2EF02DF701438982
:10025A00548954274527542765897689C8010E94FD
:10026A009D3842E050E06FE071E3C8010E949D387A
:10027A00F7014789508D542745275427618D728D80
:10028A00C8010E949D38C8010E946C4A882309F45B
:10029A000AC2809172338E7F8093723385E0809395
:1002AA006F3340E355E760E070E08FE592E30E9428
:1002BA00722F82E080936D33809170338E7F8093AA
:1002CA007033EEC180917233882309F4E9C1482F53
:1002DA0050E080FDE5C180E08F5F682F9A01082E0B
:1002EA0002C0359527950A94E2F720FFF5CF81E001
:1002FA0090E002C0880F991F6A95E2F7883009F4E6
:10030A00D8C020F4843009F450C0CAC1803109F43D
:10031A0050C1803209F0C4C18091703381FFC0C1DD
:10032A00809170338D7F8093703319821A82C8014D
:10033A000E948653C80108960E948653898181705B
:10034A00806C8E7F89831A8241E050E0BE016F5F24
:10035A007F4FC8010E949D3841E050E0BE016E5FA8
:10036A007F4FC8010E949D38C8010E946C4A8823A9
:10037A0009F496C1809172338F7D80937233809194
:10038A007133806180937133809170338B7F809356
:10039A00703340E355E760E070E08BE492E30E943B
:1003AA00722F85E080936F337BC185E592E30E94CB
:1003BA00834DC8010E948653C80108960E9486533D
:1003CA0041E050E064EA71E3C8010E949D380F2EB3
:1003DA00F4EAEF2EF1E3FF2EF02D65EA71E3F7015F
:1003EA00868597850E940B4B482F50E065EA71E39A
:1003FA00C8010E949D3842E050E069EA71E3C801F1
:10040A000E949D38F7014581568154274527542774
:10041A0067817085C8010E949D38F70180818670C6
:10042A00823071F441E050E06EEA71E3C8010E9443
:10043A009D3841E050E06DEA71E3C8010E949D38A1
:10044A00E4EAF1E3438550E064857585C8010E94BA
:10045A009D388091723382FD04C08091A43183FF5C
:10046A0030C1C8010E946C4A882309F42AC18091CC
:10047A0072338B7F809372338091A431867082307D
:10048A0009F015C1809171338062809371330FC175
:10049A009827892798279C0121503109A8EEB3E0B3
:1004AA000E944050AB01BC0185E592E30E94722F85
:1004BA00F7C0C8010E948653C80108960E94865355
:1004CA0041E050E064EB71E3C8010E949D380F2EB1
:1004DA00F4EBEF2EF1E3FF2EF02D65EB71E3F7015C
:1004EA00848595850E940B4B482F50E065EB71E39C
:1004FA00C8010E949D3841E050E06AEB71E3C801EF
:10050A000E949D3841E050E069EB71E3C8010E9406
:10051A009D3842E050E06BEB71E3C8010E949D38C0
:10052A00F7014781508554274527542761857285ED
:10053A00C8010E949D3841E050E06FEB71E3C801A9
:10054A000E949D38C8010E946C4A8823D1F080918C
:10055A007233877F80937233809171338460809382
:10056A00713380917033877F8093703340E355E70E
:10057A0060E070E081E492E30E94722F85E080934C
:10058A006F338091053190910631009709F488C044
:10059A009827892798279C0121503109A8EEB3E0B2
:1005AA000E944050AB01BC0185E592E30E94722F84
:1005BA0077C0C8010E948653C80108960E948653D4
:1005CA0041E050E060ED71E3C8010E949D380F2EB2
:1005DA00F0EDEF2EF1E3FF2EF02D61ED71E3F7015F
:1005EA00838594850E940B4B482F50E061ED71E39F
:1005FA00C8010E949D3841E050E066ED71E3C801F0
:10060A000E949D3841E050E065ED71E3C8010E9407
:10061A009D3842E050E067ED71E3C8010E949D38C1
:10062A00F7014781508554274527542761857285EC
:10063A00C8010E949D38C8010E946C4A8823D1F0E3
:10064A00809172338F7E8093723380917133886088
:10065A0080937133809170338F7E8093703340E33F
:10066A0055E760E070E087E392E30E94722F85E02D
:10067A0080936F338091053190910631009781F014
:10068A009827892798279C0121503109A8EEB3E0C1
:10069A000E944050AB01BC0185E592E30E94722F93
:1006AA0080916D3311C086E080936F33F9CF85E076
:1006BA0080936F338091053190910631009781F3D1
:1006CA00E7CE10926D33ECCF0F900F90DF91CF9160
:0A06DA001F910F91FF90EF9008951B
:1006E4002F923F924F925F926F927F928F929F923E
:1006F400AF92BF92CF92DF92EF92FF920F931F932C
:10070400CF93DF93CDB7DEB7C455D109CDBFDEBFDC
:100714008B0169017A01813411F08435E9F424E014
:1007240030E0AE014F5F5F4FC701B6010E94693AE6
:10073400811147C28A8126968FAF2697E0915B3359
:10074400F0915C33309709F43CC2AE014B5B5F4FD0
:1007540061E08981099535C28234E9F424E030E00E
:10076400AE014F5F5F4FC701B6010E94693A811124
:1007740028C28A8126968FAF2697E0915B33F09149
:100784005C33309709F41DC2AE014B5B5F4F62E0EE
:100794008981099516C2833409F077C02CE030E0D2
:1007A400AE014B5B5F4FC701B6010E94693A8111EC
:1007B40008C22F968FAD2F9788230CF441C0482F81
:1007C400082E000C550B2E962FAD2E973BE02303DD
:1007D400F0011124EA5CF14D9185349FF001359FBD
:1007E400F00D1124EA5CF14D918791E090876196B8
:1007F4002EAD3FAD61972850310926833783209170
:100804005D3330915E33B9016F5F7F4F29F06093A0
:100814005D3370935E3306C02E5F3F4F20935D338C
:1008240030935E339BE0949FF001959FF00D11246B
:10083400EA5CF14D20915D3330915E33248335833E
:10084400898382E090E08A839B8329968EAD9FAD55
:1008540029978C839D832D968CAD9DADAEADBFAD98
:100864002D978E839F83A887B987E0915B33F0919E
:100874005C33309709F4A5C1AE014F5F5F4F64E06C
:100884002E968FAD2E9709959CC1843411F08B342C
:1008940071F524E030E0AE014F5F5F4FC701B60150
:1008A4000E94693A81118DC1898126968FAF26975E
:1008B4009A8127969FAF279791110CC02BE0820253
:1008C400F0011124EA5CF14D2B813C81285031095F
:1008D40026833783E0915B33F0915C33309709F4DE
:1008E40070C1AE014B5B5F4F65E009956AC18A3404
:1008F400E1F424E430E0AE014F5F5F4FC701B6017D
:100904000E94693A81115DC1E0915933F0915A33E3
:10091400309709F456C125964CAD5DAD6EAD7FADF3
:100924002597CE01019609954CC1863451F088343F
:1009340069F08D3409F0DDC00F2EF6E0AF2EF02DF6
:1009440009C00F2EF6E0AF2EF02D04C00F2EF9E0F3
:10095400AF2EF02D20E130E0AE014B5B5F4FC701BD
:10096400B6010E94693A81112CC16296BFAC6297AC
:1009740065962EAD3FAD65976B2D0B2C000C770B58
:100984008B2D9BE08902F0011124EA5CF14D128663
:100994002F968EAD9FAD2F976196AEADBFAD61978B
:1009A40029964EAD5FAD299749875A872D964CAC51
:1009B4005DAC6EAC7FAC2D974B865C866D867E8677
:1009C400448155812417350709F0FBC01816190610
:1009D4000CF07DC04C018017910708F078C0009797
:1009E40009F4EFC02BE0269FF001279FF00D11249E
:1009F400EA5CF14D20813181232B09F4E2C02BE024
:100A0400269FF001279FF00D1124EA5CF14D22810D
:100A14003381232B09F4D5C02BE0269FF001279FB7
:100A2400F00D1124EA5CF14D2085213009F0C9C094
:100A3400CA0EDB1EE11CF11C8D839E832BE0269FD6
:100A4400C001279F900D1124FC01EA5CF14D3F0188
:100A54002F01F2E04F0E511C130128E0220E311C2D
:100A6400F201008111818016910608F48401F301DA
:100A7400408151819801C701B6010E94693A8111F0
:100A8400A0C0F3018081918189839A830B831C83A5
:100A94008D819E81801B910B8D839E83E0915B33BE
:100AA400F0915C33309731F0AE014F5F5F4F6A2DA8
:100AB4008B2D0995C00ED11EE11CF11CF101808122
:100AC400882309F47EC0801A910A51F67AC08B8378
:100AD4009C8319821A82E0915B33F0915C333097E6
:100AE40009F46FC0AE014F5F5F4F6A2D8B2D0995DE
:100AF40068C0853431F0873431F08C3481F517E0E7
:100B040003C017E001C018E028E030E0AE014F5FF9
:100B14005F4FC701B6010E94693A811152C08981B1
:100B24004D815E812B813C8127962EAF3FAF279765
:100B34002BE08202F0011124EA5CF14D248135811D
:100B440042175307F1F5E0915B33F0915C33309732
:100B5400C1F1AE014B5B5F4F612F099532C0823505
:100B640081F524E130E0AE014F5F5F4FC701B6016C
:100B74000E94693A811125C04D815E816F8178851B
:100B84008091113390911233A0911333B0911433A7
:100B9400481759076A077B0781F4E0915733F091AE
:100BA4005833309751F029853A854B855C856981A6
:100BB4007A818B819C81098909951092573310920F
:100BC4005833CC5ADF4FCDBFDEBFDF91CF911F9199
:100BD4000F91FF90EF90DF90CF90BF90AF909F90D8
:100BE4008F907F906F905F904F903F902F900895DB
:100BF400CF92DF92EF92FF920F931F93CF93DF93E5
:100C0400CDB7DEB72997CDBFDEBF8C0110926F330D
:100C140019828091703382FD08C08091703383FD06
:100C240004C08091703384FF05C010926D33C801F5
:100C34000E94D34EF80186859785892B19F48091FB
:100C44006D33CAC180916D33823039F0833009F439
:100C540081C0813009F0A9C1ABC18091703380FD9E
:100C640070C0C0900531D09006318FE592E30E94A8
:100C7400834D7801F8E0EF0EF11C41E050E0BE0135
:100C84006F5F7F4FC7010E94D0379C019981907F8D
:100C9400903209F046C08E010E5F1F4F84E0F801C8
:100CA40011928A95E9F741E050E0B801C7010E942A
:100CB400453741E050E0BE016D5F7F4FC7010E94A0
:100CC4004537B8016E5F7F4F41E050E0C7010E9495
:100CD400453741E050E0BE016B5F7F4FC7010E9482
:100CE40045378D81882309F466C170C180917233C0
:100CF400806280937233809171338F7E80937133DD
:100D0400960121503109A8EEB3E00E944050AB0196
:100D1400BC0185E592E30E94722F84E080936F33D7
:100D240047C182E080936F33898180936E3320932F
:100D340033333093343310926D33C8010E94D34E51
:100D440037C110926D33C8010E94D34E81E0809365
:100D54006F332EC17801F8E0EF0EF11C41E050E052
:100D6400BE016F5F7F4FC7010E94D0378981829592
:100D74008F708930C1F138F4833009F4DCC08430D9
:100D840009F4DDC015C18B3009F485C08D3009F03C
:100D94000FC18091713384FF0BC18091703382FD48
:100DA40007C18BE492E30E94834D1A821B8241E0C7
:100DB40050E0BE016E5F7F4FC7010E9445378091AE
:100DC40071338F7E80937133809105319091063118
:100DD400892B29F080917233806280937233C7012A
:100DE4000E948653E5C08091713382FFE1C08091F7
:100DF400703383FDDDC081E492E30E94834DBE0124
:100E04006E5F7F4F88E0FB0111928A95E9F741E01C
:100E140050E0C7010E94453741E050E0BE016D5FDC
:100E24007F4FC7010E94453741E050E0BE01695F32
:100E34007F4FC7010E94453741E050E0BE01685F23
:100E44007F4FC7010E94453798858091B931981327
:100E540012C09F818091BA3198130FC041E050E0D5
:100E6400BE01675F7F4FC7010E944537898580387F
:100E740031F013E005C010E003C010E001C010E041
:100E8400809171338B7F80937133C7010E948653A5
:100E940010936D338DC08091713383FF89C080912D
:100EA400703384FD85C087E392E30E94834DBE01C5
:100EB4006E5F7F4F84E0FB0111928A95E9F741E070
:100EC40050E0C7010E94453741E050E0BE016D5F2C
:100ED4007F4FC7010E9445378B818230E1F441E0A6
:100EE40050E0BE016C5F7F4FC7010E94453741E06F
:100EF40050E0BE016B5F7F4FC7010E9445379D8163
:100F04008091D531981309C09C818091D63198176E
:100F140031F010E005C010E003C010E001C013E0A0
:100F240080917133877F80937133C7010E94865308
:100F340010936D333DC0C8010E94511739C08E0112
:100F44000E5F1F4F84E0F80111928A95E9F741E0A2
:100F540050E0B801C7010E94453741E050E0BE01AE
:100F64006D5F7F4FC7010E94453741E050E0BE01ED
:100F74006B5F7F4FC7010E944537B8016E5F7F4F9B
:100F840041E050E0C7010E9445379C818091AD311A
:100F940098130EC09D818091AE31981309C0809141
:100FA40071338F7D8093713303C087E080936D33F9
:100FB40080916D3311C0DC24CD24DC2483E0809344
:100FC4006D33C114D10409F4A8CE90CE10926D33C0
:100FD40083E080936F33ECCF2996CDBFDEBFDF91E2
:100FE400CF911F910F91FF90EF90DF90CF900895D4
:100FF400ABE0B0E0E0E0F8E00C94A14B6C017B01C5
:101004008A01FC0116821782838181FFCCC1CE0143
:1010140001963C01F6019381F70193FD859193FFBD
:1010240081917F01882309F4BAC1853239F493FD93
:10103400859193FF81917F01853229F4B60190E077
:101044000E94923DE7CF912C212C312CFFE1F31526
:10105400D8F08B3279F038F4803279F08332A1F40D
:10106400232D20611DC08D3261F0803369F4232D5E
:10107400216016C0832D8260382EE32DE4603E2E5D
:101084002AC0F32DF8601DC037FC2DC020ED280FB9
:101094002A3040F08E32B9F436FC81C1232D20640D
:1010A400322E19C036FE06C08AE0989E200D112407
:1010B400922E11C0EAE02E9E200D1124222EF32D33
:1010C400F0623F2E08C08C3621F4832D8068382EC0
:1010D40002C0883641F4F70193FD859193FF819115
:1010E4007F018111B3CF982F9F7D9554933028F4BD
:1010F4000C5F1F4F9FE399830DC0833631F0833714
:1011040071F0833509F059C021C0F80180818983C9
:101114000E5F1F4F88248394912C530113C0280120
:10112400F2E04F0E511CF801A080B18036FE03C0DE
:10113400692D70E002C06FEF7FEFC5010E94F65188
:101144004C018201F32DFF773F2E16C0280122E0C7
:10115400420E511CF801A080B18036FE03C0692DF7
:1011640070E002C06FEF7FEFC5010E94EB514C01AC
:10117400F32DF0683F2E820133FC1BC0822D90E0DA
:1011840088169906B0F4B60180E290E00E94923D80
:101194002A94F4CFF50137FC859137FE81915F01E4
:1011A400B60190E00E94923D21102A9421E0821A17
:1011B40091088114910471F7E8C0843611F08936DE
:1011C40041F5F80137FE07C0608171818281938106
:1011D4000C5F1F4F08C060817181072E000C880BC3
:1011E400990B0E5F1F4FF32DFF763F2E97FF09C01B
:1011F40090958095709561957F4F8F4F9F4FF068C4
:101204003F2E2AE030E0A3010E945D2E882E86182E
:1012140045C0853731F4232D2F7EB22E2AE030E0ED
:1012240025C0932D997FB92E8F36C1F018F48835D7
:1012340079F0B5C0803719F0883721F0B0C0E92FB4
:10124400E061BE2EB4FE0DC0FB2DF460BF2E09C0BC
:1012540034FE0AC0292F2660B22E06C028E030E0F2
:1012640005C020E130E002C020E132E0F801B7FE21
:1012740007C060817181828193810C5F1F4F06C01A
:101284006081718180E090E00E5F1F4FA3010E9496
:101294005D2E882E8618FB2DFF773F2E36FE0DC05F
:1012A400232D2E7FA22E891458F434FE0BC032FC59
:1012B40009C0832D8E7EA82E05C0B82CA32C03C094
:1012C400B82C01C0B92CA4FE0FC0FE01E80DF11D1D
:1012D4008081803321F49A2D997EA92E09C0A2FE23
:1012E40006C0B394B39404C08A2D867809F0B394ED
:1012F400A3FC11C0A0FE06C0B21488F4280C922CE2
:101304009B180EC0B21460F4B60180E290E00E9413
:10131400923DB394F7CFB21418F42B1802C0982C52
:10132400212CA4FE10C0B60180E390E00E94923DFF
:10133400A2FE17C0A1FC03C088E790E002C088E5C4
:1013440090E0B6010CC08A2D867859F0A1FE02C047
:101354008BE201C080E2A7FC8DE2B60190E00E941E
:10136400923D891438F4B60180E390E00E94923DE6
:101374009A94F7CF8A94F301E80DF11D8081B601A8
:1013840090E00E94923D8110F5CF222009F442CED4
:10139400B60180E290E00E94923D2A94F6CFF601D5
:1013A4008681978102C08FEF9FEF2B96E2E10C9428
:0213B400EA4B02
:1013B600CF92DF92EF92FF920F931F930E94A24A61
:1013C6000E94D8300E945B4D8AE591E30E949654B4
:1013D6008AE591E30E94E6540E94A450811105C05B
:1013E60080910E28846080930E288AE591E30E94FE
:1013F600E03880937529882329F080910E2884602F
:1014060080930E288AE591E30E9496548AE591E33B
:101416000E94B6530E9414450E946E3648EE53E071
:1014260060E070E089E692E30E94722F40E257E4A2
:1014360066E170E0C12CD12C760100E010E0980145
:1014460086B38074080F111D211D311D86B380726D
:10145600C80ED11CE11CF11C4150510961097109EA
:1014660079F7003913422B40310508F0BEC080E9F8
:10147600C81683E2D8068BE0E806F10408F06CC0D3
:1014860089E0E4E3F3E8ACE7B8E201900D928A95CF
:10149600E1F78AE0EDE3F3E8ADE9B8E201900D92F9
:1014A6008A95E1F71F9282E08F9387E493E89F93F2
:1014B6008F9382EF98E29F938F930E942748E8EEDE
:1014C600F2E30F2EFAEFCF2ED12CE12CF12CF02DDA
:1014D600C082D182E282F382C482D582E682F7821A
:1014E600CF010E947114EFEDF2E3C082D182E28255
:1014F600F382C482D582E682F782CF010E947114FC
:10150600E6EDF2E31082118212821382C12CD12CF5
:101516007601C394C482D582E682F782CF010E9407
:101526007114EDECF2E31082118212821382C482EE
:10153600D582E682F782CF010E94711480910E282F
:1015460088608F7D806480930E280F900F900F9097
:101556000F900F900F90AAC0E8EEF2E384EF91E0AF
:10156600A0E0B0E080839183A283B38384839583D4
:10157600A683B783CF010E947114EFEDF2E31082C8
:10158600118212821382C12CD12C7601C394C4829B
:10159600D582E682F782CF010E947114E6EDF2E36E
:1015A6001082118212821382C482D582E682F78269
:1015B600CF010E947114EDECF2E3108211821282C7
:1015C6001382C482D582E682F782CF010E9471140B
:1015D60080910E28877F80628F7B80930E2860E043
:1015E60081EE94E50E94ED4844C0E8EEF2E38AEF0E
:1015F60090E0A0E0B0E080839183A283B3838483EC
:101606009583A683B783CF010E947114EFEDF2E3B1
:101616001082118212821382C12CD12C7601C394BE
:10162600C482D582E682F782CF010E947114E6ED6C
:10163600F2E31082118212821382C482D582E6827C
:10164600F782CF010E947114EDECF2E31082118251
:1016560012821382C482D582E682F782CF010E946B
:10166600711480910E2888608F7D8F7B80930E2861
:101676001DC00E94D8308FE498E29F938F9386E92D
:1016860092E89F938F9381E199E29F938F930E94B3
:1016960027486CE975E281E199E20E94E74D0F90D7
:1016A6000F900F900F900F900F9012C061E081EE97
:1016B60094E50E94ED488AE591E30E94A15244E632
:1016C60050E060E070E083E792E30E94722FD1CF92
:0E16D6001F910F91FF90EF90DF90CF9008953D
:1016E400CF92DF92EF92FF92CF930E9428536B0127
:1016F4007C010E941854882309F4A2C02091153358
:10170400309116334091173350911833C701B60105
:101714000E94825516161706180619060CF0A1C069
:10172400C0921533D0921633E0921733F0921833E7
:10173400E3E1FFE280E5DF011D928A95E9F78FE49A
:1017440098E29F938F938CE492E89F938F93FF93F7
:10175400EF930E94274880910E280F900F900F90CE
:101764000F900F900F9081FFEAC00E94A1407C016E
:101774000E944455D82EC92E0E94412DC82F0E9484
:1017840069449C011F92CF93992324F488279927B5
:10179400821B930B64E670E00E94BF4D9F938F936E
:1017A400C9016AE070E00E94BF4D7F936F93C70147
:1017B400FF2024F4882799278E199F0924E630E016
:1017C400B9010E94BF4D9F938F93C701B9010E9435
:1017D400BF4D7F936F93CF92DF9287E592E89F93FB
:1017E4008F9386EA9CE29F938F930E942748AC01D3
:1017F4008DB79EB740968DBF9EBF141615068CF507
:1018040066EA7CE283E19FE20E941254809186336F
:10181400882321F081508093863323C0E6EDF2E3E0
:1018240084EF91E0A0E0B0E080839183A283B3834E
:1018340084839583A683B783CF010E94711411C05A
:10184400E6EDF2E3108211821282138281E090E0CD
:10185400A0E0B0E084839583A683B783CF010E9480
:10186400711480910E2883FD42C081FF11C0E8EEFF
:10187400F2E381E090E0A0E0B0E080839183A28372
:10188400B3831482158216821782CF010E947114C9
:1018940080910E2884FD2BC00E941854882391F057
:1018A400EFEDF2E381E090E0A0E0B0E0808391838B
:1018B400A283B3831482158216821782CF010E94F9
:1018C400711415C080910E2888238CF4EFEDF2E397
:1018D4008AEF90E0A0E0B0E080839183A283B38399
:1018E40084839583A683B783CF010E94711480916A
:1018F4000E2882FF12C0EDECF2E381E090E0A0E05C
:10190400B0E080839183A283B3831482158216820C
:101914001782CF010E94711417C0EDECF2E310821C
:1019240011821282138281E090E0A0E0B0E084830F
:101934009583A683B783CF010E94711405C080915B
:101944000E2883FFA5CFD3CF64E670E080E090E05B
:0C195400CF91FF90EF90DF90CF900895AE
:10196000AF92BF92CF92DF92EF92FF920F931F93AD
:10197000CF93DF93CDB7DEB72697CDBFDEBF7C0117
:101980006B0160910D3370910E3380910F33909104
:101990001033611571058105910509F4FDC08901B8
:1019A0005A0122E030E0A7010E94693A8111F6C095
:1019B00080910D3390910E33A0910F33B09110337D
:1019C000BC01CD016E5F7F4F8F4F9F4F60930D33F2
:1019D00070930E3380930F339093103322E030E0F6
:1019E000AE014B5F5F4F0E94693A8111D9C080916F
:1019F0000D3390910E33A0910F33B0911033BC0191
:101A0000CD016E5F7F4F8F4F9F4F60930D3370936B
:101A10000E3380930F339093103322E030E0AE0109
:101A20004F5F5F4F0E94693A8111BCC080910D33B6
:101A300090910E33A0910F33B0911033BC01CD01C2
:101A40006E5F7F4F8F4F9F4F60930D3370930E33B8
:101A500080930F339093103322E030E0AE014D5F5E
:101A60005F4F0E94693A81119FC080910D33909120
:101A70000E33A0910F33B0911033BC01CD016E5FD6
:101A80007F4F8F4F9F4F60930D3370930E33809332
:101A90000F3390931033F7012081318132272327B0
:101AA0003227208331832D813E813227232732271D
:101AB000F801E05CFF4F2083318349815A8154272C
:101AC0004527542749835A834B815C8154274527F6
:101AD00054274B835C83220F331FA8010E94693A6D
:101AE000811164C0F801E05CFF4F20813181220F39
:101AF000331F80910D3390910E33A0910F33B0912D
:101B00001033BC01CD01620F731F811D911D6093C5
:101B10000D3370930E3380930F33909310332981DC
:101B20003A81A6010E94693A811142C029813A8115
:101B300080910D3390910E33A0910F33B0911033FB
:101B4000BC01CD01620F731F811D911D60930D3388
:101B500070930E3380930F33909310332B813C811D
:101B6000A5010E94693A811125C02B813C814091D9
:101B70000D3350910E3360910F3370911033420F3B
:101B8000531F611D711D40930D3350930E336093AD
:101B90000F33709310330FC084EF0DC084EF0BC070
:101BA00084EF09C084EF07C084EF05C084EF03C051
:101BB00084EF01C084EF2696CDBFDEBFDF91CF91C9
:101BC0001F910F91FF90EF90DF90CF90BF90AF905B
:021BD000089576
:101BD200CF92DF92EF92FF92CF93DF93EB018B31A3
:101BE20009F4EEC020F4893009F4F2C021C18C322C
:101BF20021F0823309F4CBC01BC18881813009F006
:101C02005FC080916933882309F183E292E30E94E5
:101C1200834D10926933E8EEF2E38AEF90E0A0E0A0
:101C2200B0E080839183A283B38384839583A68368
:101C3200B783CF010E94711448EE53E060E070E078
:101C420089E192E30E94722F0E941B5180910E281B
:101C52008A708830C1F4EFEDF2E38AEF90E0A0E001
:101C6200B0E080839183A283B38384839583A68328
:101C7200B783CF010E94711480910E288260877B06
:101C8200806180930E2880910E2885FF16C08F7D7B
:101C920080930E28E8EEF2E388EE93E0A0E0B0E055
:101CA20080839183A283B38384839583A683B7833E
:101CB20083E08087CF010E9471140E94FA4D59C0BF
:101CC200811157C0E6EDF2E3108211821282138273
:101CD200C12CD12C7601C394C482D582E682F782CC
:101CE200CF010E947114EDECF2E310821182128294
:101CF2001382C482D582E682F782CF010E947114D8
:101D020080910E2886FD22C0EFEDF2E3108211824F
:101D12001282138281E090E0A0E0B0E08483958398
:101D2200A683B783CF010E947114E8EEF2E38AEF33
:101D320090E0A0E0B0E080839183A283B3838483A8
:101D42009583A683B783CF010E94711480910E28D8
:101D52008D7E886080930E2842E350E060E070E060
:101D620085E092E30E94722F80910E288160809319
:101D72000E28E0912733F0912833309709F458C0A8
:101D820080910E2880FD54C08881099551C08BE155
:101D920098E20E94884B81114BC080910E2880FFEF
:101DA20009C085E092E30E94834D80910E288E7FC8
:101DB20080930E2880910E288B7F80930E2838C046
:101DC20088819981892BA1F1CB010E942D4330C0DA
:101DD200FB01ED59FF4F808181112AC0319780812B
:101DE2001F928F9386EB9CE79F938F9382EF98E2EB
:101DF2009F938F930E942748BE018CE798E20E942E
:101E02000554BE016F5D7F4F8DE998E20E94055433
:101E120081E08093693340E050E0BA0183E292E3CB
:101E22000E94722F0F900F900F900F900F900F90B3
:0E1E3200DF91CF91FF90EF90DF90CF90089559
:101E4000CF92DF92EF92FF92CF93DF938091092898
:101E5000982F957051F4E0919431F091953167EE9F
:101E600071E381EF91E309951FC083FD1DC0E091EF
:101E7000A031F091A1310995811116C080910928F6
:101E800081FD12C040E157E260E070E081EF91E334
:101E90000E94722F80910E288F7780930E28809158
:101EA000092888608093092880910E2881FD0BC045
:101EB000E091A031F091A1310995882309F4E3C0A4
:101EC0000E945555E0C00E945255DC015096ED919C
:101ED000FC9151978081082E000C990B0E94D752DB
:101EE000C82F0E94194A6B017C010E942853672B5E
:101EF000682B692B09F1E091A031F091A13109958E
:101F00008823D1F080910E28806880930E288091DC
:101F1000F5329091F632A091F732B091F832C816AE
:101F2000D906EA06FB0641F0C092F532D092F632AD
:101F3000E092F732F092F832C23009F4A4C030F0E7
:101F4000C33009F1C43009F099C09DC00E94B84562
:101F500060910A2870910B2880910C2890910D288F
:101F6000E0919631F091973109958F3F31F480914E
:101F70000E28846080930E2886C080910E28806190
:101F800080930E2880C0E091A231F091A331099591
:101F9000882331F0E0919831F0919931099573C01F
:101FA0000E945255EC010E94FA05873071F00E94A0
:101FB0005B55823019F0843021F007C00E945E55D5
:101FC00004C00E9428530E943153CE010E94BD00DC
:101FD0000E945B550E945255FC01C484D5840E9426
:101FE0005255DC011896ED90FC9019970E945255BD
:101FF000DC015096ED91FC915197808120E030E01A
:10200000A601B701082E000C990B0E942A33E0911B
:10201000A031F091A13109958823A9F180910E2872
:102020008F7E8B7F80930E2881EF91E30E94834DFA
:1020300087EE91E30E94834D809109288B7F877FF3
:102040008093092884FF05C0E0919A31F0919B317B
:1020500009950E94194A61317E40810591059CF0E5
:10206000E0919E31F0919F310995E889F98980814D
:10207000082E000C990B0E94C94605C080910E28BD
:10208000846080930E2864EF71E080E090E0DF913F
:0C209000CF91FF90EF90DF90CF9008956B
:10209C004F925F926F927F928F929F92AF92BF926C
:1020AC00FF920F931F93CF93DF9300D000D0CDB747
:1020BC00DEB7F82EB62E29013A0120E030E0A90156
:1020CC006CE070E0CB010E94A63920E030E0A90161
:1020DC006CE870E180E090E00E94A63920E030E0EE
:1020EC00A9016CEA77E082E090E00E94A63921E039
:1020FC0030E040E050E068E171E180E090E00E9467
:10210C0059388111BFC020E034E040E050E060E07D
:10211C0074E180E090E00E9459388111B5C064E10F
:10212C0070E180E090E00E9408469923C4F76CEBC4
:10213C0077E082E090E00E94084660FD19C00FEC49
:10214C0017E061E070E080E090E00E94354A6CE0BE
:10215C0070E0CB010E9408466E39704D8D4A90415B
:10216C0021F00150110968F703C0012B09F48EC04E
:10217C00FF2079F02DE735ED4CE15CE36CEA77E07C
:10218C0082E090E00E94A639812C912C540193940A
:10219C000DC0BB2039F0812C912C5401689487F828
:1021AC00939404C0812C912C54019394A30192011B
:1021BC006CE870E180E090E00E94A6390E94412218
:1021CC00DC01CB019F70AA27BB27803A9340A10565
:1021DC00B10510F0689481F8A501940160EA74E1EE
:1021EC0080E090E00E94A639AE014F5F5F4F60EA3D
:1021FC0074E180E090E00E947D4E811109C08981DC
:10220C009A81AB81BC8188169906AA06BB0621F778
:10221C0021E63FE242E55FEE6CE070E0CB010E940C
:10222C00A63900ED17E062E070E080E090E00E94DB
:10223C00354AF11017C06CE870E180E090E00E9424
:10224C0008466633764283459240B9F420E030E08C
:10225C00A9016CE870E180E090E00E94A6390E9430
:10226C00874917C06CEA77E082E090E00E9408464C
:10227C00633C714C8D45974D59F00150110999F6FD
:10228C0080E007C080E005C080E003C080E001C0B2
:10229C0081E02496CDBFDEBFDF91CF911F910F91CE
:1022AC00FF90BF90AF909F908F907F906F905F90BA
:0422BC004F900895A2
:1022C000EF92FF920F931F93CF93DF93CDB7DEB7BB
:1022D000C854D109CDBFDEBF88230CF4E3C021155B
:1022E000310509F4E1C0E82E082E000CFF089BE040
:1022F0008902D0011124AA5CB14D18969C919923B2
:1023000009F4D4C0D901623009F0A8C087300CF0BC
:10231000CFC09BE09E9DF0019F9DF00D1124EA5CD3
:10232000F14D918590FFC6C04130E1F42D913C9173
:10233000232B61F08BE08E9DF0018F9DF00D112419
:10234000EA5CF14D9260918780E0B9C08BE08E9D90
:10235000F0018F9DF00D1124EA5CF14D9D7F918776
:1023600080E0ADC04330E1F42D913C91232B61F02E
:102370008BE08E9DF0018F9DF00D1124EA5CF14DF4
:102380009061918780E09BC08BE08E9DF0018F9DD6
:10239000F00D1124EA5CF14D9F7E918780E08FC0A3
:1023A0004430E1F42D913C91232B61F08BE08E9D24
:1023B000F0018F9DF00D1124EA5CF14D906491873E
:1023C00080E07DC08BE08E9DF0018F9DF00D11248B
:1023D000EA5CF14D9F7B918780E071C0423009F04B
:1023E0006BC00034110508F069C089838BE08E9DB5
:1023F000F0018F9DF00D1124EA5CF14D84819581EF
:102400008B839C8382E08A83A80160E070E04D8327
:102410005E836F83788780E4F901DE01199601906D
:102420000D928A95E1F728E430E0AE014F5F5F4FEF
:1024300061E582E00E94314D8D3F61F428E430E097
:10244000AE014F5F5F4F61ED82E00E94314D81111F
:1024500003C035C080E033C082EF31C04E838D832E
:102460008D919D910D90BC91A02D89839A83AB8312
:10247000BC838BE08E9DF0018F9DF00D1124EA5CF2
:10248000F14D848195818F83988728E030E0AE01FB
:102490004F5F5F4F6FE482E00E94314D882379F0F7
:1024A00087EF0DC08AEF0BC08AEF09C08AEF07C023
:1024B0008AEF05C08AEF03C08AEF01C08AEFC85BCC
:1024C000DF4FCDBFDEBFDF91CF911F910F91FF9006
:0424D000EF900895EC
:1024D4004F4B0D00646562756720706172616D65B4
:1024E400746572206D7573742062652062657477FB
:1024F40065656E203020284C656173742920616EF7
:1025040064203420284D6F737429200D00342E313B
:102514002E30007625730D0A0400312E302E310042
:1025240025730D0A0400556E6B6E6F776E2E0D0ABF
:1025340004004572726F722067657474696E672057
:102544005468696E67204E616D652E0D0A04002C77
:10255400002564004F4B0D0A04004572726F722E01
:102564002057692D466920636F6D6D616E64206626
:102574006F726D61742069732077696669203C739A
:102584007369643E5B2C3C706173733E2C5B6175B4
:102594007468547970655D5D0D0A04002D2D2D2D30
:1025A4002D2D2D2D2D2D2D2D2D2D2D2D2D2D2D2D57
:1025B4002D2D2D2D2D2D2D2D2D2D2D2D2D2D2D2D47
:1025C4002D2D2D2D2D2D2D2D0D0A556E6B6E6F7706
:1025D4006E20636F6D6D616E642E204C6973742080
:1025E4006F6620617661696C61626C6520636F6DF2
:1025F4006D616E64733A0D0A72657365740D0A64D5
:1026040065766963650D0A7468696E670D0A72659B
:10261400636F6E6E6563740D0A76657273696F6EAF
:102624000D0A636C695F76657273696F6E0D0A7764
:10263400696669203C737369643E5B2C3C7061730A
:10264400733E2C5B61757468547970655D5D0D0A29
:1026540064656275670D0A2D2D2D2D2D2D2D2D2DC3
:102664002D2D2D2D2D2D2D2D2D2D2D2D2D2D2D2D96
:102674002D2D2D2D2D2D2D2D2D2D2D2D2D2D2D2D86
:102684002D2D2D0D0A04000D0A436F6D6D616E64CE
:1026940020746F6F206C6F6E670D007265736574C4
:1026A400007265636F6E6E656374007769666900B6
:1026B4007468696E670064657669636500636C6954
:1026C4005F76657273696F6E0076657273696F6E9B
:0726D40000646562756700F8
:0126DB00FFFF
:1026DC00CF92DF92EF92FF921F93CF93DF93CDB700
:1026EC00DEB72697CDBFDEBF1B821C821D821E82E9
:1026FC0063E575E60E94F55489839A83009709F483
:10270C00C7C09E012F5F3F4F790110E0F701819305
:10271C0091937F011F5F63E575E680E090E00E9476
:10272C00F554009719F0133089F7C3C0E980FA808B
:10273C00E114F10409F4B5C08B819C81009729F454
:10274C008D819E81892B81F415C02D813E81232B97
:10275C0059F40E9448559EEF980F923008F498C097
:10276C00813041F012E016C08D819E810E94485547
:10277C00182F97C040E250E0B7018CE798E20E9416
:10278C004F5010929D2881E390E08093F228909313
:10279C00F32824C040E250E0B7018CE798E20E9495
:1027AC004F506B817C8140E450E08DE998E20E94AF
:1027BC004F501F921F9385E595E69F938F9382EF61
:1027CC0098E29F938F930E9427480F900F900F9041
:1027DC000F900F900F90112309F45AC088E595E6DD
:1027EC009F938F930E94884C0E9418540F900F90C7
:1027FC00882321F00E9452550E94D34E80910E28BE
:10280C0088233CF48F7780930E280E9452550E94A7
:10281C00E8390E946C50E6EDF2E3108211821282CC
:10282C001382C12CD12C7601C394C482D582E6824A
:10283C00F782CF010E947114EDECF2E31082118249
:10284C0012821382C482D582E682F782CF010E9463
:10285C007114EFEDF2E31082118212821382C482A2
:10286C00D582E682F782CF010E947114E8EEF2E382
:10287C008AEF90E0A0E0B0E080839183A283B383E1
:10288C0084839583A683B783CF010E94711418C0EB
:10289C008EE595E69F938F930E94884C0F900F9036
:1028AC000FC0113009F466CF98F3143008F472CFCE
:1028BC00EFCFE980FA80E114F10409F03DCF6ACF43
:1028CC002696CDBFDEBFDF91CF911F91FF90EF9089
:0628DC00DF90CF9008958B
:1028E200CF93DF93EC018885813009F47DC008F431
:1028F200B6C08230F1F1833009F0EBC089EB92E38C
:102902000E94834D83EC92E30E94834D8C819D81D2
:10291200AE81BF81892B8A2B8B2B21F488E0809397
:102922006604D7C088819981AA81BB81892B8A2BB1
:102932008B2B21F488E080936504CBC0A3ECB2E337
:102942001296CD93DC931397E9EBF2E3C283D38320
:1029520087EB9FE48D939C93119787EA9FE4808392
:102962009183488159816A817B81CD010E94722FB6
:10297200B0C085EA92E30E94834D8FEA92E30E94FF
:10298200834D8C819D81AE81BF81892B8A2B8B2BBC
:1029920021F484E0809366049CC088819981AA8195
:1029A200BB81892B8A2B8B2B21F484E080936504D5
:1029B20090C0AFEAB2E31296CD93DC931397E5EAA7
:1029C200F2E3C283D38387E99FE48D939C931197AB
:1029D20087E89FE480839183488159816A817B8162
:1029E200CD010E94722F75C081E992E30E94834D4E
:1029F2008BE992E30E94834D8C819D81AE81BF81E0
:102A0200892B8A2B8B2B21F482E08093660461C090
:102A120088819981AA81BB81892B8A2B8B2B21F4F6
:102A220082E08093650455C0ABE9B2E31296CD9380
:102A3200DC931397E1E9F2E3C283D38387E79FE450
:102A42008D939C93119787E69FE4808391834881BD
:102A520059816A817B81CD010E94722F3AC08DE734
:102A620092E30E94834D87E892E30E94834D8C811A
:102A72009D81AE81BF81892B8A2B8B2B21F481E032
:102A82008093660426C088819981AA81BB81892BA3
:102A92008A2B8B2B21F481E0809365041AC0A7E86E
:102AA200B2E31296CD93DC931397EDE7F2E3C28380
:102AB200D38387E59FE48D939C93119787E49FE4EA
:102AC20080839183488159816A817B81CD010E94F3
:082AD200722FDF91CF910895EE
:102ADA002F923F924F925F926F927F928F929F9224
:102AEA00AF92BF92CF92DF92EF92FF920F931F9312
:102AFA00CF93DF93CDB7DEB72C97CDBFDEBF962F2E
:102B0A009F779A8389830115110539F0F701389661
:102B1A00EC0DFD1DEB83FC8304C0F9013896EB83B1
:102B2A00FC83EB81FC81ED33F64008F0ABC0360143
:102B3A00680149015A01162F082F0E94BA4B8111C8
:102B4A00A3C02B813C81C901A0E0B0E0DC01992738
:102B5A008827802B9C01AD01312B2D833E834F8327
:102B6A0058876CE870E180E090E00E94A63922E084
:102B7A0030E040E050E068E770E180E090E00E94D9
:102B8A00A63919861A861B861C8607EE13E0AE0143
:102B9A004B5F5F4F68E770E180E090E00E947D4EF6
:102BAA000E947355882321F00E94564B8FEF6DC007
:102BBA008D8181FD0AC0AE01475F5F4F60E074E01E
:102BCA0085E190E00E947D4E0DC0053F81E0180727
:102BDA0030F461E070E080E090E00E94354A0150F4
:102BEA001109A8F60E947355811109C029843A84F3
:102BFA004B845C84211431044104510421F40E9461
:102C0A00564B8DEF42C028E030E0AE014F5F5F4F78
:102C1A00C201B1010E94772388E0280E311C411CB1
:102C2A00511CA114B10431F09401A501C201B101F2
:102C3A000E947723C114D10451F0C201B101660D7B
:102C4A00771D811D911D9701A6010E947723898511
:102C5A009A85AB85BC85880F991FAA1FBB1F880F51
:102C6A00991FAA1FBB1F9C01AD0122606CE670E18F
:102C7A0080E090E00E94A6390E94564B0E9473554C
:102C8A00819503C08FEF01C08FEF2C96CDBFDEBFB9
:102C9A00DF91CF911F910F91FF90EF90DF90CF902E
:102CAA00BF90AF909F908F907F906F905F904F9062
:062CBA003F902F900895E9
:102CC0008F929F92AF92BF92CF92DF92EF92FF923C
:102CD0000F931F93CF93DF938C01DC011696CD9059
:102CE000DD90ED90FC901997C0912F33D091303347
:102CF00014961D921C9215978091FD329091FE3290
:102D0000A091FF32B0910033C816D906EA06FB063F
:102D100008F065C08090FD329090FE32A090FF32A6
:102D2000B090003380916B33882329F10E94C35403
:102D3000A0E0B0E04091F9325091FA326091FB325C
:102D40007091FC3284179507A607B70720F48FEF20
:102D50009FEFA0E0B0E04091F9325091FA326091DB
:102D6000FB327091FC32841A950AA60AB70A880EC3
:102D7000991EAA1EBB1E209791F0FE0186819781A5
:102D8000A085B18588199909AA09BB09868397830B
:102D9000A087B1870480F581E02D309779F7809185
:102DA000FD329091FE32A091FF32B091003388192C
:102DB0009909AA09BB098093FD329093FE32A09332
:102DC000FF32B0930033BFEFEB1AFB0AC818D908E3
:102DD000EA08FB08F801C682D782E086F1862097D0
:102DE00041F18E819F81A885B985C816D906EA066A
:102DF000FB0658F41EC086819781A085B185C81650
:102E0000D906EA06FB06C0F1EF01EC81FD8130979F
:102E100091F732C08091313290913232D8011496BC
:102E20008D939C93159700932F331093303381E04B
:102E30002BC01092F9321092FA321092FB3210929B
:102E4000FC3280E090E00E949E510E943C548091B0
:102E5000F9329091FA32A091FB32B091FC320E948B
:102E60009E510E943C5480912F3390913033B2E3B5
:102E70008D329B0799F6CECFD8011496ED93FC9333
:102E800015970C831D8380E0DF91CF911F910F91E7
:102E9000FF90EF90DF90CF90BF90AF909F908F907A
:022EA000089593
:102EA2004F925F926F927F928F929F92AF92BF9258
:102EB200CF92DF92EF92FF920F931F93CF93DF9304
:102EC200CDB7DEB7CC53D140CDBFDEBFBE016F5F01
:102ED2007F4F20E1DB011D922A95E9F7FE017196F1
:102EE20024E6DF011D922A95E9F7EC59FF4F28EC01
:102EF200DF011D922A95E9F78C01085F1F4F41E01F
:102F020050E0C8010E94453741E050E0BE016E5FCB
:102F12007F4FC8010E9445378A818823ACF47E0125
:102F2200B3E0EB0EF11C5E01E6E0AE0EB11C41E037
:102F320050E0B701C8010E944537F7018081FFEFD9
:102F4200EF1AFF0A88236CF0FE013296412C512CB5
:102F52003201C12CD12C7601C394812C912C5401C5
:102F620004C0EA14FB0419F7EFCFA191AF77B0E0E8
:102F7200A70196010E94D551460E571E681E791E62
:102F8200CC0CDD1CEE1CFF1CCC0CDD1CEE1CFF1C53
:102F9200CC0CDD1CEE1CFF1CCC0CDD1CEE1CFF1C43
:102FA200CC0CDD1CEE1CFF1CCC0CDD1CEE1CFF1C33
:102FB200CC0CDD1CEE1CFF1C8FEF881A980AA80AA5
:102FC200B80A99F2DF0111978C91882374F242E0DA
:102FD20050E0BE016A5F7F4FC8010E944537BE01C3
:102FE2006F5E7F4F688779874E815F8154274527BF
:102FF2005427C8010E9445378E819F8198278927CF
:1030020098274EEF5FEF6FEF7FEF481B590B610977
:103012007109440D551D661D771DCE018B589F4FBA
:103022008D879E87BC01C8010E9445370E94AF541C
:10303200FC01892B29F06D857E8588859985099506
:10304200C8010E94865383E0C45CDE4FCDBFDEBF61
:10305200DF91CF911F910F91FF90EF90DF90CF9072
:10306200BF90AF909F908F907F906F905F904F90A6
:023072000895BF
:103074002F923F924F925F926F927F928F929F9284
:10308400AF92BF92CF92DF92EF92FF920F931F9372
:10309400CF93DF93CDB7DEB7A597CDBFDEBF19823F
:1030A4001A82833008F0A1C0823021F460317105A6
:1030B40008F09DC00115110509F49BC021153105C7
:1030C40009F499C0680119012A016CA37DA38BA39B
:1030D400AE014F5F5F4F0E94B82B81118FC02981D1
:1030E4003A81C801840D951D2817390708F485C055
:1030F4003201769467947694679476946794769480
:103104006794769467946894FF24F5F8812C912C45
:10311400A12CB12C80E2F8121CC089819A81930100
:10312400220F331F22953295307F3227207F32279A
:10313400821B930B809768F442018A0C9B1C969423
:1031440087949694879497E0892299246894FF241D
:10315400F2F8EF2C8E010D5F1F4F282D462D6CA128
:103164007DA18BA10E94732A811148C0C301880FDD
:10317400991F880F991F880F991F880D991D880F13
:10318400991F880F991F8415950520F4B201681BB7
:10319400790B02C060E070E08F2D90E0861B970BE6
:1031A40086010A191B098017910708F48C0183E032
:1031B40090E08C0F9D1F680F791FA801C1018A0D33
:1031C4009B1D0E944353A00EB11E90E2F91204C04D
:1031D4008FEF681A780A03C09FEF891A990AAC1412
:1031E400BD0408F497CF80E009C082EE07C082EEE8
:1031F40005C080E003C082EE01C082EEA596CDBF7B
:10320400DEBFDF91CF911F910F91FF90EF90DF9080
:10321400CF90BF90AF909F908F907F906F905F9072
:083224004F903F902F90089598
:10322C002F923F924F925F926F927F928F929F92CA
:10323C00AF92BF92CF92DF92EF92FF920F931F93B8
:10324C00CF93DF93F12C0EED14EED8011696CD91A1
:10325C00DC9117970F2EFEE4AF2EFEEDBF2EF02D56
:10326C000F2EF0EA8F2EF5E69F2EF02D0F2EFDE09F
:10327C003F2EF02D84C0D801ED91FC9109958D3035
:10328C0021F08A3009F06BC07FC0E0916733F0E029
:10329C00E155F14D108280916633811154C07FC08D
:1032AC0090916533809365339D3009F453C0F110D0
:1032BC0051C060E270E08FEA9EE20E94E0513C0156
:1032CC00009719F0FC0111923F01EFEAFEE2019028
:1032DC000020E9F73197EF5AFE422E2E0F2EFEE218
:1032EC00EF2EFEEDFF2EF02DD701CD90DC90B60128
:1032FC008FEA9EE20E944C53F60101900020E9F700
:10330C003197EC19FD0981110CC02E120AC0D7019E
:10331C001296ED91FC911397309719F0C301099512
:10332C000CC0B4E0EB0EF11CEA14FB04E9F69F921E
:10333C008F920E94884C0F900F9080916633882357
:10334C0039F0FF24F3948BE896E60E94A93A02C068
:10335C00FF24F394109267331092663310C0E091FF
:10336C006733E43648F491E09E0F90936733F0E0B6
:10337C00E155F14D808303C081E080936633FE01FB
:10338C000995811178CF0EC0E0916733F0E0E155DB
:10339C00F14D1082909166339111D5CF81CF30923F
:1033AC00653385CF62E370E080E090E0DF91CF91F0
:1033BC001F910F91FF90EF90DF90CF90BF90AF9047
:1033CC009F908F907F906F905F904F903F902F9039
:0233DC00089552
:1033DE00FF920F931F93CF93DF9300D000D0CDB702
:1033EE00DEB7029709F0B5C0613009F044C02091F4
:1033FE008433022F10E0C801019667E070E00E944E
:10340E00BF4D809384339BE0909FF001919FF00D10
:10341E001124EA5CF14D9085911109C08BE0809FDB
:10342E00F001819FF00D1124EA5CF14D1BC0282F95
:10343E0036E00F2EFBE0FF2EF02D07E010E0822F7E
:10344E0090E0F89EF001F99EF00D1124EA5CF14D2A
:10345E000196B8010E94BF4D582F9085911104C05E
:10346E0050938433122F45C03150282F41F750937B
:10347E0084331FEF3EC0623009F06DC0209183335C
:10348E00822F90E03BE0239FF0011124ED57F14D88
:10349E00019683709078992324F401978C6F9F6F17
:1034AE0001968093833330853323D1F0282F33E078
:1034BE006BE0822F90E0689FF001699FF00D112460
:1034CE00ED57F14D019683709078992324F401976E
:1034DE008C6F9F6F01965085511105C08093833379
:1034EE0017E0120F06C03150282F19F7809383333F
:1034FE001FEF309789F18BE0DF011D928A95E9F776
:10350E0081E0808780915D3390915E339C012F5FC7
:10351E003F4F29F020935D3330935E3305C0029602
:10352E0080935D3390935E3380915D3390915E33E3
:10353E008483958340FF10C0198381E2818724E044
:10354E0030E0AE014F5F5F4F60E582E00E94314D8B
:10355E0003C01FEF01C01FEF812F2496CDBFDEBF2A
:0C356E00DF91CF911F910F91FF90089505
:10357A00A8E0B0E0E3ECFAE10C94AB4B8B01FC0160
:10358A00608171818281938120E831E541E050E0D8
:10359A000E94054869017A012CE330E040E050E0DE
:1035AA000E94194C29833A834B835C8389819A81CF
:1035BA00AB81BC81F80160836CE370E00E94BF4D6F
:1035CA00DC01CB01F801A1838283C601069667E07C
:1035DA0070E00E94AB4D84832DEA3EE840E050E063
:1035EA00C701B6010E94194C29833A836D837E83F1
:1035FA008F83988789819A8124E6289F6001299F71
:10360A00D00C11246D817E818F81988525EB35E060
:10361A0040E050E00E94194C29833A836D837E83EF
:10362A00E980FA80EE0CFF1CEE0CFF1CEC0CFD1C72
:10363A008D819E81F5E6EF16F10410F0019604C023
:10364A0024E6E216F10419F021E030E002C020E09D
:10365A0030E0A90144595E4F4817590768F46DE6EE
:10366A0071E0821B930B0E94BF4DDC01CB01E80E77
:10367A00F91ECD0120E030E044E6E40EF11CF80129
:10368A00E682F78280879187255C3F4F82179307EE
:10369A0048F46FE170E00E94BF4DDC01CB01F801F4
:1036AA00858322C069E970E0821B930B0E94BF4D9B
:1036BA00DC01CB01F82EFF0CFF0CF80E6DE370E075
:1036CA00CD010E94BF4DDC01CB01E82EEE0C6FE16B
:1036DA0070E0CD010E94BF4DDC01CB0122E0280F32
:1036EA00F20EFE0CF801F582A383F8011286138606
:0E36FA0083818F5F83832896E8E00C94F44B65
:10370800CF92DF92EF92FF92CF93DF93CDB7DEB7E0
:10371800C057D109CDBFDEBF69017A01863059F1A2
:10372800873009F440C0813009F09FC020E730E0BD
:10373800AE014F5F5F4FC701B6010E94693A811120
:1037480094C0E0915333F0915433309709F48DC00D
:1037580080E7C80ED11CE11CF11CC0920D33D09239
:103768000E33E0920F33F0921033BE016F5F7F4F3C
:1037780081E009957AC024E030E0AE014F5F5F4FE9
:10378800C701B6010E94693A81116FC0E0915333B5
:10379800F0915433309709F468C0BE016F5F7F4FD2
:1037A80086E0099562C028E030E0AE014F5F5F4FC8
:1037B800C701B6010E94693A81114DC02D813E8131
:1037C8008F8198856B817C8149815A8121153105CA
:1037D80099F421E020937F338617970709F020E0BA
:1037E800CA01992781309105A1F1C8F0823091056D
:1037F800E9F00397F1F02AC0820F931F21E08617A2
:10380800970709F020E0CA0199278130910509F14D
:1038180030F08230910551F0039759F013C0809130
:103828007F338130B1F440937F3313C040937F33AB
:1038380010C080917F33823061F0843051F0409322
:103848007F3307C080917F33823019F084E0809302
:103858007F33222351F0E0915333F0915433309762
:1038680021F06FE773E387E00995C059DF4FCDBFBB
:10387800DEBFDF91CF91FF90EF90DF90CF9008955A
:103888001F93CF93DF93CDB7DEB72897CDBFDEBFA9
:103898000E94F053182F882309F4A0C0AE014F5F8F
:1038A8005F4F60E770E180E090E00E947D4E8111FB
:1038B80084C089819A81AB81BC8180FF80C09C01D2
:1038C800AD012E7F29833A834B835C8360E770E1E7
:1038D80080E090E00E94A639811173C089819A81A5
:1038E800AB81BC81B695A79597958795B695A79511
:1038F800979587959F708093513390935233892B76
:1039080009F461C045E053E364E870E180E090E0C9
:103918000E947D4E811159C0609105337091063324
:10392800809107339091083324E030E0AE014B5F7B
:103938005F4F0E94CC2F182F811149C06F81788565
:103948008091513390915233861B970B059708F05D
:1039580040C0ED818FEF8E0F8730E8F580910533F9
:1039680090910633A0910733B09108339C01AD01C3
:10397800285F3F4F4F4F5F4F68507109F0E0EE0FDF
:10398800FF1FE451F8410190F081E02D8E810995E7
:1039980081E00E945C4C22E030E040E050E060E7CB
:1039A80070E180E090E00E94593880E00E945C4C11
:1039B8000E947355882391F010C014EF0FC014EFC4
:1039C8000DC014EF0BC01EEF09C014EF07C014EFB1
:1039D80005C01AEF03C014EF01C014EF812F289619
:0C39E800CDBFDEBFDF91CF911F9108958D
:1039F400CF92DF92EF92FF920F931F93CF93DF93B7
:103A0400CDB7DEB76097CDBFDEBF6B017C018EE121
:103A140094E50E94F54E60E070EA80E090E00E9438
:103A24006F4BC114D104E104F10409F485C082E0B0
:103A340090E089839A8383EB92E20E9410558B83F2
:103A44009C83CD82DE82EF82F8860E9452556C01FF
:103A5400DC015096ED91FC9151978081082E000C69
:103A6400990B0E94D75281111CC0F601008911895B
:103A740041E050E061E070E082E090E00E946D423D
:103A8400D8018C93D6015096ED91FC915197808189
:103A940088233CF00E94E045009719F021E0FC01E6
:103AA4002483D6015096ED91FC9151978081082E84
:103AB400000C990B0E94D7528130E1F5EBE1F8E25A
:103AC40001900020E9F731978F010B511842D6017C
:103AD4005096ED91FC91519780812BE138E242E0C0
:103AE40050E062E070E0082E000C990B0E94CA338B
:103AF400F82E811122C0D6015096ED91FC91519778
:103B0400808140E150E0BE016F5F7F4F082E000CC2
:103B1400990B0E949828F82E882379F0D6015096A4
:103B2400ED91FC9151978081082E000C990B0E9415
:103B3400C94603C0F12C01C0F12C8F2D6096CDBF76
:103B4400DEBFDF91CF911F910F91FF90EF90DF9037
:043B5400CF90089571
:103B5800EF92FF920F931F93CF93DF93CDB7DEB70A
:103B6800C25CD109CDBFDEBF8C01CF53DF4F1882B5
:103B78001982C15CD04081E090E08B839C83F8017E
:103B8800808191818330910501F130F48130910574
:103B980051F0029731F15BC08430910509F445C0BA
:103BA8000597A1F154C0AE01435F5F4FBE016F5A44
:103BB8007F4FC8010C960E948A29082E000C990B89
:103BC8008B839C83E12CF12C44C0CE010D960E947E
:103BD8002239082E000C990B8B839C83E12CF12C45
:103BE80038C0AE014F5A5F4FB801645F7F4FF8018C
:103BF800E25BFF4F808191810E949B54082E000C4C
:103C0800990B8B839C83E12CF12C23C0F8016485EC
:103C18007585868597850E942226082E000C990BAB
:103C28008B839C83E12CF12C14C07E01F1E7EF0E0D
:103C3800F11CAE014F535F4FB701C8010C960E94AB
:103C48007D3E082E000C990B8B839C8302C0E12CCF
:103C5800F12CF8018081918189839A8384819581EF
:103C6800A681B7818D839E83AF83B8878085918530
:103C7800A285B38589879A87AB87BC870E94FB5248
:103C8800CF53DF4F48815981C15CD0406E2D7F2DC5
:103C9800CE0101960E94874ACE53DF4FCDBFDEBFCB
:0E3CA800DF91CF911F910F91FF90EF90089543
:103CB6002564002A2E706F6F6C2E6E74702E6F72D4
:103CC60067005468696E67204E616D6520697320D0
:103CD6006E6F742070726573656E742C20657272D7
:103CE6006F7220747970652025642C207573657257
:103CF60020646566696E6564207468696E6720492C
:103D06004420697320757365641B5B306D005468CD
:103D1600696E67204E616D6520726561642066720A
:103D26006F6D2074686520646576696365206973C4
:103D36002025731B5B306D0041575320456E647020
:103D46006F696E74206973206E6F7420707265736C
:103D5600656E7420696E2057494E432C2065697440
:103D66006865722072652D70726F766973696F6E01
:103D7600206F72206D6963726F63686970204157A6
:103D8600532073616E64626F7820656E64706F692C
:103D96006E742077696C6C20626520757365641B90
:103DA6005B306D0041575320456E64706F696E74C9
:103DB60020726561642066726F6D2057494E4320FC
:103DC60069732025731B5B306D004D4348502E49A7
:103DD6004F542E414343455353504F494E540000D0
:103DE60000000000000000000000003132333435CE
:103DF60036373839300000000000000000000000AF
:063E0600000000000000B6
:103E0C004F925F926F927F928F929F92AF92BF92DE
:103E1C00EF92FF920F931F93CF93DF9300D000D0BC
:103E2C00CDB7DEB77C0148015901742E66245524A8
:103E3C004424872F9927AA27BB27482A592A6A2A5C
:103E4C007B2A8BE0482ADB01CA018827AA27BB27DB
:103E5C00BA2FA92F982F8827482A592A6A2A7B2AF1
:103E6C00442755277727452F562F672F7727442A26
:103E7C00552A662A772AA901980168E072E081E048
:103E8C0090E00E94A639A30192016CE072E081E0FF
:103E9C0090E00E94A63925EA30E040E050E060E175
:103EAC0072E081E090E00E94A6392FE130E040E022
:103EBC0050E064E172E081E090E00E94A63920E0DD
:103ECC0030E04DE050E06CE172E081E090E00E9467
:103EDC00A63925E830E040E050E064E072E081E093
:103EEC0090E00E94A639AE014F5F5F4F68E172E02F
:103EFC0081E090E00E947D4E811108C089819A81F9
:103F0C00AB81BC810197A105B10569F70E9473557E
:103F1C00882319F00DC084EF0CC09401A70160E058
:103F2C0070E08DE090E00E94CC2F882311F0F3CF4D
:103F3C0084EF2496CDBFDEBFDF91CF911F910F91FF
:103F4C00FF90EF90BF90AF909F908F907F906F906D
:063F5C005F904F900895F4
:103F6200A0E0B0E0E7EBFFE10C94A74BEC01EE819F
:103F7200FF818F0104561109B9F0CF0185569109CD
:103F82006C0197FF03C023E0C20ED11CD594C794E5
:103F9200D594C7946CE97FEF0E94BF4DC60ED71E21
:103FA2008FEFC81AD80A02C0C12CD12C2DE631E0FD
:103FB200D8010E94FE530D2C000CEE08FF08C60E1D
:103FC200D71EE81EF91E8B81082E000C990B8C015E
:103FD200015011092D8122302CF4222379F1015E46
:103FE2001F4F2CC0CF018459984F0E94D34D282FC8
:103FF20030E0255C3F4F200F311F8D81082E000CD1
:10400200990B02978530910514F027563F4F65E0D2
:1040120070E00E94BF4DAC0197FF02C04F5F5F4F3F
:10402200559547959DE3949F8001959F100D11240E
:10403200020F131F80FF02C0015E1F4FC801110F44
:10404200AA0BBB0B9C01AD012C0D3D1D4E1D5F1D2E
:1040520060E871E581E090E00E94C74F4B015C018E
:10406200AA810A2E000CBB0B20E13EE00E94FE5307
:104072006B017C01A9810A2E000CBB0B2CE330E002
:104082000E94FE53C60ED71EE81EF91E6881862FB7
:10409200660F990BAA0BBB0B8C0D9D1DAE1DBF1D90
:1040A200BC01CD01680D791D8A1D9B1DCDB7DEB700
:0640B200ECE00C94F04B61
:1040B8000F931F93CF93DF930E94243F40E054E077
:1040C8008EEDFA01808320E234E0F901108280E469
:1040D80094E0FC011082C0E6D4E06FE06883A0E8B9
:1040E800B4E01C9200EA14E079E1F801708370E80A
:1040F800FA017483F9011482FC0114826C8314960A
:104108001C921497F8011482FA01108A118A128AF3
:10411800138A148A158A168A178AF901108A118A4D
:10412800128A138A148A158A168A178AFC01108A39
:10413800118A128A138A148A158A168A178A188A83
:10414800198A1A8A1B8A1C8A84E08D8B1E8A1F8A08
:1041580050961C92509751961C92519752961C92C9
:10416800529753961C92539754961C92549755966F
:104178001C92559756961C92569757961C92F80182
:10418800108A88E0818B9BE0928B138A148A858B36
:10419800868B178AE0EEF5E0118210821482158270
:1041A800138212828AE995E58093433390934433CE
:1041B8008BE995E580934133909342338CE995E5FB
:1041C80080933F33909340338DE995E580933D3359
:1041D80090933E338EE995E580933B3390933C333F
:1041E8008FE995E58093393390933A3380EA95E5E2
:1041F8008093373390933833DF91CF911F910F918C
:02420800089517
:10420A00246177732F7468696E67732F25732F7310
:10421A006861646F772F757064617465007B2273BF
:10422A0074617465223A7B227265706F7274656478
:10423A00223A7B22746F67676C65223A25647D7D1A
:10424A007D0025732F73656E736F7273007B224C2A
:10425A0069676874223A25642C2254656D70223A83
:10426A0025642E253032642C224F6D726F6E546590
:10427A006D70223A25642E253032642C224F6363F6
:10428A007570616E6379223A25757D0024617773B2
:10429A002F7468696E67732F25732F736861646F53
:1042AA00772F7570646174652F64656C7461002280
:1042BA00746F67676C65223A00746F7069633A209D
:1042CA0025731B5B306D007061796C6F61643A20F5
:1042DA0025731B5B306D00613167717438737474B8
:1042EA006969676E332E696F742E75732D656173F4
:1042FA00742D322E616D617A6F6E6177732E636FE2
:10430A006D005573696E67207468652041575320A4
:10431A0053616E64626F7820656E64706F696E7443
:10432A00203A2025731B5B306D004D4348502E49BF
:10433A004F54006D6963726F636869700025640089
:10434A00CF92DF92EF92FF920F931F93CF93DF9357
:10435A00CDB7DEB7C75CD109CDBFDEBF4115510568
:10436A0009F454C0E0912B33F0912C33C080D180F2
:10437A00982F9370923009F062C02115310531F4FB
:10438A0047C00115110509F05EC044C08C836D83D6
:10439A007E8380E4FA01DE01179601900D928A95D8
:1043AA00E1F780E4F901DE01A95BBF4F01900D92AC
:1043BA008A95E1F709C083E1F801DE01A95BBF4FE5
:1043CA0001900D928A95E1F7BE016F5F7F4FC6019A
:1043DA000E94C147811143C060912B3370912C33E5
:1043EA00CE0101960E941E28811139C0E114F10400
:1043FA0099F08F81833290F080E2FE013896D701DE
:10440A0001900D928A95E1F780E029C082EE27C0DB
:10441A0082EE25C082EE23C080E021C080E01FC06A
:10442A008C836D837E8380E4FA01DE011796019006
:10443A000D928A95E1F70115110531F2BCCF93303F
:10444A0009F49FCFEDCF8C836D837E8380E4FA01DC
:10445A00DE01179601900D928A95E1F7ACCFC95308
:10446A00DF4FCDBFDEBFDF91CF911F910F91FF903C
:08447A00EF90DF90CF90089550
:10448200CF92DF92EF92FF92CF93DF9300D000D0D2
:10449200CDB7DEB7C0900933D0900A33E0900B332A
:1044A200F0900C33C114D104E104F10409F078C096
:1044B200AE014F5F5F4F64EF73E180E090E00E94D6
:1044C2007D4E81116DC049E053E360E070E180E010
:1044D20090E00E947D4E811163C0809109339091DA
:1044E2000A33A0910B33B0910C33803A22E0920749
:1044F20020E1A207B105A9F489819A81AB81BC812F
:104502000197A105B105C1F181EA92E0A0E1B0E015
:104512008093093390930A33A0930B33B0930C33F7
:104522002BC0803B9240A041B10531F589819A812F
:10453200AB81BC8183309105A105B105E9F00497F7
:10454200A105B10569F481EB92E0A0E1B0E08093AE
:10455200093390930A33A0930B33B0930C330CC0FE
:1045620082EB92E0A0E1B0E08093093390930A33AA
:10457200A0930B33B0930C33C0900933D0900A331D
:10458200E0900B33F0900C3380EFE82225E0E22A32
:10459200C0920933D0920A33E0920B33F0920C337B
:1045A200C701B6012496CDBFDEBFDF91CF91FF9048
:0845B200EF90DF90CF90089517
:1045BA008F929F92AF92BF92FF920F931F93CF93C6
:1045CA00DF93CDB7DEB7CC56D109CDBFDEBFF82E0B
:1045DA0049015A01809183308E3309F442C0F8169A
:1045EA0031F003E810E337C08F1135C002C003E889
:1045FA0010E3D80111962D913C911297211531059E
:10460A0009F45BC0AE014F5F5F4FC501B4010E9460
:10461A00693A811159C0E0915533F0915633309778
:10462A0001F1D80111968D919C911297892B71F005
:10463A00B1E1FB1205C010928033898180938233E5
:10464A00BE016F5F7F4F8F2D09950BC060E070E050
:10465A008F2D099506C00D5F1F4FF80180818E339B
:10466A0019F6F0E2FF1230C028E030E0AE014B59F3
:10467A005F4FC501B4010E94693A811125C0AB960A
:10468A002EAD3FADAB97A7964EAD5FADA797C501CF
:10469A00B401685F7F4F8F4F9F4F0E94693A811123
:1046AA0013C0E0915533F0915633309769F0BE014B
:1046BA006B597F4F80E2099507C0E0915533F0911D
:1046CA005633309771F2C2CFC459DF4FCDBFDEBF28
:1046DA00DF91CF911F910F91FF90BF90AF909F9064
:0446EA008F90089510
:1046EE007F928F929F92AF92BF92CF92DF92EF9274
:1046FE00FF920F931F93CF93DF93CDB7DEB728971B
:10470E00CDBFDEBF6A018901FE01319697E0DF0160
:10471E001D929A95E9F797EC998390917B339111BD
:10472E0049C091E090937B332130310511F402E0C2
:10473E0010E08A837B836C831E830F8367E0CE0138
:10474E0001960E941C4DB82E811137C081EF8887CB
:10475E0001151105D9F1712C6894882485F80F2E56
:10476E00F3EF9F2EF02D0F2EF2EFAF2EF02D7801DE
:10477E000130B0E21B0710F0E72CF82C0E191F09C0
:10478E0009F4988661E070E0CE0108960E943332FB
:10479E008823C9F0B701C6010E943332882399F0ED
:1047AE00A886CE0CDF1C0115110509F70FC010925B
:1047BE007B3312C0BB24B3940FC0BB24B3940CC084
:1047CE00BB24B39409C0BB24B39406C083EC0E94EF
:1047DE006C40882361F3F4CF8B2D2896CDBFDEBFBE
:1047EE00DF91CF911F910F91FF90EF90DF90CF90BF
:0C47FE00BF90AF909F908F907F90089527
:10480A00CF93DF93EC01E8EFF0E38DE1DF011D9236
:10481A008A95E9F790819F709061908384E08683FE
:10482A009DE4978391E5908794E5918792878387A2
:10483A008F89988D892B21F48B899C89892B21F06A
:10484A0082EC8093043103C082E08093043148EF04
:10485A0050E38D859E85982789279827FA018587B1
:10486A009687A989BA89A18BB28BFD010190002094
:10487A00E9F79F01215031092A1B3B0BDA011F96E8
:10488A002D933C9350974091043146FF09C0898D7E
:10489A009A8DFD01818F928F8F89988D878B908F4A
:1048AA00442394F48D899E89E8EFF0E3858B968BF7
:1048BA006B897C89638B748B8789908D860F971F90
:1048CA000496820F931F01C0C9010C96809313317D
:1048DA0090931431407C81F0E8EFF0E38789908D62
:1048EA00982789279827878B908F83899489982777
:1048FA0089279827838B948B322723273227209363
:10490A0007313093083181E08093723380936D339D
:06491A00DF91CF9108952A
:10492000CF92DF92EF920F93CF93DF93CDB7DEB7A5
:104930002B97CDBFDEBFDC01690119821A828B8300
:104940009C836D830E83E11002C082E001C080E091
:10495000613248F00CC0FD01E60FF11D908191110C
:1049600003C0362F01C0362F6150A8F73D83423077
:1049700081F018F4413039F048C0433059F14430E7
:1049800009F43FC042C0BE016F5F7F4F0E949E4747
:1049900043C0C114D104D9F11F82188619861A8622
:1049A0001B86F60101900020E9F73197EC19FD090B
:1049B000E034F10519F4CF82D88603C0C986DA86BF
:1049C000EB87AE01495F5F4FBE016F5F7F4F0E9473
:1049D000A02722C0C114D104E1F096012E5F3F4F01
:1049E0002F833887F60191819150998790819A871A
:1049F000AE01495F5F4FBE016F5F7F4F0E94E22CA7
:104A00000BC0CD2841F084EF07C081EF05C081EFD6
:104A100003C081EF01C081EF2B96CDBFDEBFDF91D8
:0C4A2000CF910F91EF90DF90CF900895A0
:104A2C00CF92DF92EF92FF920F931F93CF93DF936E
:104A3C00CDB7DEB72897CDBFDEBF88230CF45FC09F
:104A4C006115710509F45DC04115510509F45BC090
:104A5C00A82F082E000CBB0B9BE08902F00111243F
:104A6C00EA5CF14D9085992309F44FC09BE09A9F25
:104A7C00F0019B9FF00D1124EA5CF14D6083718372
:104A8C00428353839285911142C09BE09A9FF0011F
:104A9C009B9FF00D1124EA5CF14D91E0928791857A
:104AAC0090FF02C06DE401C066E4011511052105FB
:104ABC00310549F4CC24CA94DC2C7601C982DA8203
:104ACC00EB82FC8204C009831A832B833C838D8385
:104ADC008BE08A9FF0018B9FF00D1124EA5CF14D65
:104AEC00848195818F83988728E030E0AE014F5FF9
:104AFC005F4F82E00E94314D882361F00AC08AEF3B
:104B0C0009C08AEF07C08AEF05C08AEF03C080E0B6
:104B1C0001C082EF2896CDBFDEBFDF91CF911F91F0
:0C4B2C000F91FF90EF90DF90CF90089564
:104B3800EF92FF920F931F93CF93DF93182F092FB4
:104B4800F62EE72E8FE498E29F938F9386E992E8FA
:104B58009F938F93C1E1D9E2DF93CF930E942748B7
:104B680009900020E9F72197AE0141515942612F80
:104B7800702F81E199E20E94B2500F900F900F9030
:104B88000F900F900F90892BB9F569EB72E88F2D74
:104B98009E2D0E94F14A009779F1FC0181858133AD
:104BA800A9F481E080938733E6EDF2E381E090E0B9
:104BB800A0E0B0E080839183A283B383148215823E
:104BC80016821782CF010E94711413C01092873386
:104BD800E6EDF2E3108211821282138281E090E006
:104BE800A0E0B0E084839583A683B783CF010E94B9
:104BF800711482E0809386330F931F9383EC92E8BD
:104C08009F938F931F921F920E94DD3CEF92FF9219
:104C180081ED92E89F938F931F921F920E94DD3C33
:104C28000E94563D8DB79EB70C968DBF9EBFDF91F3
:0C4C3800CF911F910F91FF90EF90089515
:104C44008F929F92AF92BF92CF92DF92EF92FF9298
:104C54001F93CF93DF93CDB7DEB7C75ED109CDBF26
:104C6400DEBFFE01EB56FF4F20E5DF011D922A95C2
:104C7400E9F7CB51DF4F18821982C55ED040611528
:104C840071058105910509F445C04B015C01C12CF6
:104C9400D12C76019E012F5F3F4FAE014B5B5F4FDE
:104CA400BE016B567F4FCE018B519F4F0E94B00CBB
:104CB400182F811134C0CB51DF4F88819981C55E93
:104CC400D0404797E1F4C951DF4F1882C75ED04006
:104CD4009E0129513F4FAE014F5F5F4FBE016B5B99
:104CE4007F4FCE018B569F4F0E94172F811114C006
:104CF400C951DF4F8881C75ED040882369F0BFEF78
:104D0400CB1ADB0AEB0AFB0A8C149D04AE04BF0425
:104D140009F605C014EF03C00E94A25514EF812FB9
:104D2400C951DF4FCDBFDEBFDF91CF911F91FF90FF
:104D3400EF90DF90CF90BF90AF909F908F900895A9
:104D4400CF92DF92EF92FF920F931F93CF93DF9353
:104D5400CDB7DEB76097CDBFDEBF88230CF45BC050
:104D64006115710509F459C0493795E0590708F0F0
:104D740056C0282F082E000C330B9BE08902F0014B
:104D84001124EA5CF14D9085992309F44AC0898382
:104D94004B835C839BE0929FF001939FF00D112461
:104DA400EA5CF14D0480F581E02DED87FE878730C4
:104DB40034F00F2EF4E4CF2ED12CF02D05C00F2E9D
:104DC400F0E5CF2ED12CF02D8BE0829FF001839F54
:104DD400F00D1124EA5CF14D818580FF0CC08BE05D
:104DE400829FF001839FF00D1124EA5CF14DC6808F
:104DF400D7808CE401C085E47A018B01682F606858
:104E040020E130E0AE014F5F5F4F82E00E946D15FC
:104E1400882351F008C08AEF07C08AEF05C08AEFE3
:104E240003C08AEF01C082EF6096CDBFDEBFDF9181
:104E3400CF911F910F91FF90EF90DF90CF90089545
:104E4400CF93DF93FC0180E1A4EAB1E3ED01199271
:104E54008A95E9F780916D33833009F06BC09C919A
:104E64009F7090639C93808183FB882780F980FBEB
:104E740093F99C9380818670997F982B9C939E7064
:104E8400983019F48C91877F8C939081A4EAB1E3D4
:104E94008C9190FB80F98C938781908517968D93E4
:104EA4009C93189727813085E90109900020E9F740
:104EB400CE010197821B930B15968D939C931697A5
:104EC40020812695237071F0218519962C931997CA
:104ED40022851A962C931A9722E030E01E962D9381
:104EE4003C931F9724853585A4EAB1E31C962D9342
:104EF4003C931D9743851B964C931B971E962D91AF
:104F04003C911F972E5F3F4F240F311D280F391FEF
:104F14001E962D933C931F979827892798271596BB
:104F24008D939C931697809172338460809372332F
:0C4F340081E001C080E0DF91CF91089582
:104F4000CF92DF92EF92FF920F931F93CF93DF9355
:104F5000CDB7DEB7CC59D109CDBFDEBF4115510564
:104F600009F452C07A019B018E0103591F4F4CE690
:104F700050E062E00E941229811153C0FE01319677
:104F80008CE6DF011D928A95E9F7F7016081718156
:104F90006115710571F082819381892B79F580E427
:104FA000898340E2CE0102960E94A73B811138C05E
:104FB0002DC0628173816115710511F14481413405
:104FC00008F5498350E0CE0102960E9443530F2E0C
:104FD000F0E3CF2ED12CF02D0F2EFCE6EF2EF12C8E
:104FE000F02D8E010F5F1F4F20E330E0AE014359DB
:104FF0005F4F6BEB81E00E946D1513C081EF11C014
:1050000081EF0FC081EF0DC081EF0BC0498150E0EF
:10501000F70160817181CE0102960E944353D7CF80
:1050200081EFC456DF4FCDBFDEBFDF91CF911F911F
:0C5030000F91FF90EF90DF90CF9008955B
:10503C00AF92BF92CF92DF92EF92FF921F93CF93DA
:10504C00DF9300D0CDB7DEB76C017B01DB016D9136
:10505C007C91FC0182810E942630811157C0D701BE
:10506C00ED91FC911197A280B38012968D919C9139
:10507C0013970E94DD4C182F811142C0F60141811B
:10508C0050E0B601D70112968D919C9113970E9416
:10509C00D453182F811134C0B50180E090E00E94E8
:1050AC00A04EB6E0CB0ED11C80ECF60111928A9585
:1050BC00E9F780EC90E089839A83AE014F5F5F4FF4
:1050CC00B601D70112968D919C9113970E94DB53D8
:1050DC00182F811115C089819A818430910520F493
:1050EC00892B69F417EE0CC0C6010E947241182F6F
:1050FC00811106C0C6010E940B42182F01C016EE8A
:10510C00F701828193810E94B14E812F0F900F90F5
:10511C00DF91CF911F91FF90EF90DF90CF90BF90D8
:04512C00AF900895A3
:10513000AF92BF92CF92DF92EF92FF920F931F93A5
:10514000CF93DF93CDB7DEB76097CDBFDEBF8C01C5
:105150006B015A010E94E0457C01892B09F44FC084
:10516000F6018191919189839A832EE0DE01139655
:1051700001900D922A95E1F70297D9F582E090E02F
:1051800089839A834A2DBE016F5F7F4F802F0E94D3
:10519000BB2E882341F1873F01F18A3F99F5112306
:1051A00034F486E2809373338FEF9FEF2DC0CD28C8
:1051B00031F481E3809373338FEF9FEF25C0AB28E9
:1051C00031F486E1809373338FEF9FEF1DC086E249
:1051D000809373338FEF9FEF17C085E08093733315
:1051E0008FEF9FEF11C082E0F701848380E090E0B1
:1051F0000BC08FE2809373338FEF9FEF05C08FEF6B
:105200009FEF02C08FEF9FEF6096CDBFDEBFDF91B3
:10521000CF911F910F91FF90EF90DF90CF90BF90B3
:04522000AF900895AE
:105224000F931F93CF93DF93F901D801445D5F4F30
:10523400309709F459C022813381232B09F456C0D5
:105244009481913208F054C0109709F453C090E34C
:10525400E80119929A95E9F74D935C93119781307F
:1052640059F088F0823009F047C012968C91129759
:10527400826012968C93129712968C911297816089
:1052840012968C93129785818F3F21F413968C93F9
:10529400139706C081508E3088F513968C9313971C
:1052A4008FEF860F843060F5ED018F016CA7848148
:1052B4008C83448150E062817381CD0105960E9404
:1052C4004353F80180819181892BE1F081E08DA322
:1052D400DE0196960190F081E02D86E001900D921A
:1052E4008A95E1F780E00FC081EF0DC081EF0BC01C
:1052F40081EF09C084EF07C081EF05C081EF03C0CF
:1053040081EF01C080E0DF91CF911F910F9108954B
:105314009F92AF92BF92CF92DF92EF92FF920F9340
:105324001F93CF93DF936C015B01EA018091F1320B
:105334009091F232A091F332B091F432892B8A2BFE
:105344008B2B41F01092F1321092F2321092F33220
:105354001092F432E0912B33F0912C330280F381DC
:10536400E02D0180F281E02D81818330C9F08091AC
:10537400F1329091F232A091F332B091F43201966D
:10538400A11DB11D8093F1329093F232A093F332B8
:10539400B093F4326894EE24E1F8F12C912C07C018
:1053A400EE24EA94FE2C0F2EFDE09F2EF02DBE017C
:1053B400C7010E946E53811111C0C05CDF4F80E2AF
:1053C40090E08883998300E010E09501A601B7017D
:1053D400892D0E948831811103C003C084EF01C06C
:1053E40084EFDF91CF911F910F91FF90EF90DF90A9
:0A53F400CF90BF90AF909F900895F6
:1053FE00EF92FF920F931F93CF93DF93D82FC62F69
:10540E007A010E94E0458C01009709F45EC0C63017
:10541E0009F118F4C53031F058C0C730B1F0C930B9
:10542E00A9F153C0E114F10409F44FC0D70111964C
:10543E008C91882324F083E0F801848346C08D2F5D
:10544E00DD0F990B0E94C94640C083E0D801149627
:10545E008C933BC0E114F104C1F1F70162817381B9
:10546E00161617066CF4DC011296ED91FC9113974B
:10547E00D7018D919C91099583E0F801848325C015
:10548E008D2FDD0F990B0E94C9461FC0E114F10448
:10549E00E1F0D7018D919C911197009789F01296AA
:1054AE006D917C9113976115710551F0D80112968B
:1054BE00ED91FC911397099583E0F801848305C063
:1054CE008D2FDD0F990B0E94C946DF91CF911F9151
:0854DE000F91FF90EF9008957B
:1054E600AF92BF92CF92DF92EF92FF920F931F93EC
:1054F600CF93DF93CDB7DEB7C95CD109CDBFDEBF91
:10550600F82E6801012BB1F1E0912B33F0912C3389
:10551600A080B18084E0E816D9F180E2E8122CC0C0
:105526002EC08F2D8068F82EFC82C853DF4F8881ED
:105536009981C85CD0408D839E83BE016F5F7F4F8B
:10554600C5010E94475281112BC060912B33709187
:105556002C33CE0101960E941E28182F81110EC0F1
:105566004E2D50E0BE01685F7F4FC6010E94435337
:10557600812F16C082EE14C082EE12C011C08E01B9
:1055860008531F4F8F2D0E94CF42811109C0C9CFEA
:105596008E0108531F4F8F2D0E94CF42882321F280
:1055A600C753DF4FCDBFDEBFDF91CF911F910F9164
:0E55B600FF90EF90DF90CF90BF90AF900895E0
:1055C4000F931F930E943654E0912F33F0913033A0
:1055D400309719F40E94F24C5CC04091FD32509116
:1055E400FE326091FF327091003386819781A085ED
:1055F400B185841B950BA60BB70B009701E0A007A0
:10560400B10500F14091FD325091FE326091FF32BC
:1056140070910033ADE2B2E3415051096F4F7F4FB7
:1056240016964D935D936D937C9319971496ED9311
:10563400FC931597A0932F33B09330338FEF9FEFE4
:10564400A0E0B0E04FEF5FEF60E070E08A019B0103
:10565400081B190B2A0B3B0B0093F9321093FA32F7
:105664002093FB323093FC3280E090E00E949E5104
:105674000E943C548091F9329091FA32A091FB320D
:10568400B091FC320E949E510E94305481E080937C
:085694006B331F910F91089583
:10569C00EF92FF920F931F93CF93DF93CDB7DEB7AB
:1056AC00C75CD109CDBFDEBFA0912B33B0912C3399
:1056BC00ED90FC90982F93708C836D837E83923049
:1056CC0048F484E1FA01DE01179601900D928A9557
:1056DC00E1F715C09330B1F585FF09C080E4FA01FC
:1056EC00DE01179601900D928A95E1F708C080E2D1
:1056FC00FA01DE01179601900D928A95E1F7890166
:10570C00BE016F5F7F4FC7010E94514A81111FC0BC
:10571C0060912B3370912C33CE0101960E941E2880
:10572C00811115C00115110579F08F81833270F04C
:10573C0080E2FE013896D80101900D928A95E1F72E
:10574C0080E005C082EE03C080E001C080E0C95358
:10575C00DF4FCDBFDEBFDF91CF911F910F91FF9037
:04576C00EF9008951D
:105770004115510509F45AC0E0912B33F0912C33B7
:105780000280F381E02D0180F281E02D9181911161
:105790001BC0813059F018F0823079F049C088E59B
:1057A00090E0FA018083918380E0089580E490E0A6
:1057B000FA018083918380E0089580E290E0FA010D
:1057C0008083918380E00895813059F018F0823011
:1057D00079F030C080E890E0FA018083918380E026
:1057E000089580E490E0FA018083918380E0089539
:1057F0006830710538F484E290E0FA018083918387
:1058000080E008956830710539F480EA91E0FA018A
:105810008083918380E008956031710568F488E4A5
:1058200090E0FA018083918380E0089582EE0895EC
:0C58300082EE089582EE089582EE089545
:10583C00CF93DF9310920A2810920B2810920C2809
:10584C0010920D2880910E288D7F886080930E28F1
:10585C0080910928877F8B7F809309280E94D640EE
:10586C006EE570E58FEF99E20E941F530E94B845D8
:10587C00CFE0D8E28AE0FE0111928A95E9F7CE01D9
:10588C000E94B4540E945255FC01808991898883EE
:10589C0099838CE495E58A839B8380917C2888236B
:1058AC0039F081E09091F228911103C080E001C0A1
:1058BC0080E00E94C0448823A1F087EE91E30E940F
:1058CC00834D40E157E260E070E081EF91E30E948C
:1058DC00722F809109288D7F8860816080930928C0
:1058EC0005C0809109288E7F8093092860E070E0C4
:0858FC00CB01DF91CF9108956B
:10590400FC01892B09F444C08081882309F442C036
:10591400DF010D900020E9F71197AE1BBF0B9197A3
:10592400D8F581A181508E30C8F5DF01AF5BBF4F40
:105934008C91811108C011968C91811104C011962B
:105944008C91882369F187AD813061F18330B9F49A
:1059540082A18150843040F583A18F7E8A3031F555
:1059640084A1882329F1B496DF010D900020E9F782
:105974001197AE1BBF0B5B97E8F084EF089582305C
:10598400D9F483A190E00897C997C0F084EF0895F3
:1059940084EF089584EF089584EF089584EF0895C3
:1059A40084EF089580E0089584EF089584EF0895C6
:1059B40084EF089580E0089584EF089580E00895C9
:1059C400CF92DF92EF92FF920F931F93CF93DF93C7
:1059D400CDB7DEB7C054D109CDBFDEBFFA013097D1
:1059E400D1F120813181232BC1F1938191509430E5
:1059F400B0F592819F7E9A30A1F57A019B018E01C8
:105A04000F5F1F4F40E150E063E00E9412298111B3
:105A140029C0F7018381815089AB428146954AAB05
:105A240060817181CE01C3960E94A73B0F2EF0E3E3
:105A3400CF2ED12CF02D6894EE24E4F8F12C005DE7
:105A44001F4F20E330E0AE014F5F5F4F6BEB81E00F
:105A54000E946D1507C081EF05C081EF03C081EF7F
:105A640001C081EFC05CDF4FCDBFDEBFDF91CF91BE
